{
  "contractName": "Election",
  "abi": [
    {
      "constant": true,
      "inputs": [
        {
          "name": "",
          "type": "uint256"
        }
      ],
      "name": "candidates",
      "outputs": [
        {
          "name": "CandidateId",
          "type": "uint256"
        },
        {
          "name": "Name",
          "type": "string"
        },
        {
          "name": "VoteCount",
          "type": "uint256"
        }
      ],
      "payable": false,
      "stateMutability": "view",
      "type": "function"
    },
    {
      "constant": true,
      "inputs": [],
      "name": "candidate",
      "outputs": [
        {
          "name": "",
          "type": "string"
        }
      ],
      "payable": false,
      "stateMutability": "view",
      "type": "function"
    },
    {
      "constant": true,
      "inputs": [],
      "name": "CandidateCount",
      "outputs": [
        {
          "name": "",
          "type": "uint256"
        }
      ],
      "payable": false,
      "stateMutability": "view",
      "type": "function"
    },
    {
      "constant": true,
      "inputs": [
        {
          "name": "",
          "type": "address"
        }
      ],
      "name": "voters",
      "outputs": [
        {
          "name": "",
          "type": "bool"
        }
      ],
      "payable": false,
      "stateMutability": "view",
      "type": "function"
    },
    {
      "inputs": [],
      "payable": false,
      "stateMutability": "nonpayable",
      "type": "constructor"
    },
    {
      "constant": false,
      "inputs": [
        {
          "name": "_CandidateId",
          "type": "uint256"
        }
      ],
      "name": "vote",
      "outputs": [],
      "payable": false,
      "stateMutability": "nonpayable",
      "type": "function"
    }
  ],
  "bytecode": "0x608060405234801561001057600080fd5b5060006003819055506100666040805190810160405280601581526020017f43616e646964617465206175746f6d6174656420310000000000000000000000815250610105640100000000026401000000009004565b6100b36040805190810160405280601581526020017f43616e646964617465206175746f6d6174656420320000000000000000000000815250610105640100000000026401000000009004565b6101006040805190810160405280601581526020017f43616e646964617465206175746f6d6174656420330000000000000000000000815250610105640100000000026401000000009004565b610227565b60036000815480929190600101919050555060606040519081016040528060035481526020018281526020016000815250600160006003548152602001908152602001600020600082015181600001556020820151816001019080519060200190610171929190610182565b506040820151816002015590505050565b828054600181600116156101000203166002900490600052602060002090601f016020900481019282601f106101c357805160ff19168380011785556101f1565b828001600101855582156101f1579182015b828111156101f05782518255916020019190600101906101d5565b5b5090506101fe9190610202565b5090565b61022491905b80821115610220576000816000905550600101610208565b5090565b90565b610512806102366000396000f30060806040526004361061006d576000357c0100000000000000000000000000000000000000000000000000000000900463ffffffff1680630121b93f146100725780633477ee2e1461009f5780636c8381f8146101535780638dd32e15146101e3578063a3ec138d1461020e575b600080fd5b34801561007e57600080fd5b5061009d60048036038101908080359060200190929190505050610269565b005b3480156100ab57600080fd5b506100ca60048036038101908080359060200190929190505050610360565b6040518084815260200180602001838152602001828103825284818151815260200191508051906020019080838360005b838110156101165780820151818401526020810190506100fb565b50505050905090810190601f1680156101435780820380516001836020036101000a031916815260200191505b5094505050505060405180910390f35b34801561015f57600080fd5b50610168610422565b6040518080602001828103825283818151815260200191508051906020019080838360005b838110156101a857808201518184015260208101905061018d565b50505050905090810190601f1680156101d55780820380516001836020036101000a031916815260200191505b509250505060405180910390f35b3480156101ef57600080fd5b506101f86104c0565b6040518082815260200191505060405180910390f35b34801561021a57600080fd5b5061024f600480360381019080803573ffffffffffffffffffffffffffffffffffffffff1690602001909291905050506104c6565b604051808215151515815260200191505060405180910390f35b600260003373ffffffffffffffffffffffffffffffffffffffff1673ffffffffffffffffffffffffffffffffffffffff16815260200190815260200160002060009054906101000a900460ff161515156102c257600080fd5b6000811180156102d457506003548111155b15156102df57600080fd5b6001600260003373ffffffffffffffffffffffffffffffffffffffff1673ffffffffffffffffffffffffffffffffffffffff16815260200190815260200160002060006101000a81548160ff021916908315150217905550600160008281526020019081526020016000206002016000815480929190600101919050555050565b6001602052806000526040600020600091509050806000015490806001018054600181600116156101000203166002900480601f0160208091040260200160405190810160405280929190818152602001828054600181600116156101000203166002900480156104125780601f106103e757610100808354040283529160200191610412565b820191906000526020600020905b8154815290600101906020018083116103f557829003601f168201915b5050505050908060020154905083565b60008054600181600116156101000203166002900480601f0160208091040260200160405190810160405280929190818152602001828054600181600116156101000203166002900480156104b85780601f1061048d576101008083540402835291602001916104b8565b820191906000526020600020905b81548152906001019060200180831161049b57829003601f168201915b505050505081565b60035481565b60026020528060005260406000206000915054906101000a900460ff16815600a165627a7a72305820547e7124a5fb42c9d06cc2507335106f9eae7f7fa2578cc52e4ec04d43c718430029",
  "source": "pragma solidity ^0.4.22;\ncontract Election {\n\n    struct Candidate\n    {\n      uint CandidateId;\n      string Name;\n      uint VoteCount;\n    }\n\n    // Read/write candidate\n    string public candidate;\n\n    mapping(uint => Candidate) public candidates;\n    mapping(address => bool) public voters;\n\n    uint public CandidateCount;\n\n    // Constructor\n    constructor () public {\n        CandidateCount = 0;\n        addCandidate(\"Candidate automated 1\");\n        addCandidate(\"Candidate automated 2\");\n        addCandidate(\"Candidate automated 3\");\n    }\n\n  function addCandidate(string _name) private{\n    CandidateCount++;\n    candidates[CandidateCount] = Candidate(CandidateCount, _name, 0);\n  }\n\n  function vote(uint _CandidateId){\n    require(!voters[msg.sender]);\n\n    require(_CandidateId > 0 && _CandidateId <= CandidateCount);\n\n    voters[msg.sender] = true;\n\n    candidates[_CandidateId].VoteCount++;\n  }\n\n}",
  "sourcePath": "E:\\Private\\Projects\\Blockchain work\\electionDapp\\contracts\\Election.sol",
  "compiler": {
    "name": "solc",
    "version": "0.4.25+commit.59dbf8f1.Emscripten.clang"
  },
  "schemaVersion": "2.0.2",
  "updatedAt": "2019-01-19T13:45:21.297Z"
}