{
  "contractName": "Thankyou",
  "abi": [
    {
      "constant": true,
      "inputs": [
        {
          "name": "",
          "type": "address"
        },
        {
          "name": "",
          "type": "uint256"
        }
      ],
      "name": "myThankYouList",
      "outputs": [
        {
          "name": "toAddress",
          "type": "address"
        },
        {
          "name": "name",
          "type": "string"
        },
        {
          "name": "amount",
          "type": "uint256"
        }
      ],
      "payable": false,
      "stateMutability": "view",
      "type": "function"
    },
    {
      "constant": true,
      "inputs": [
        {
          "name": "",
          "type": "address"
        }
      ],
      "name": "myThankYouListCount",
      "outputs": [
        {
          "name": "",
          "type": "uint256"
        }
      ],
      "payable": false,
      "stateMutability": "view",
      "type": "function"
    },
    {
      "constant": true,
      "inputs": [
        {
          "name": "",
          "type": "address"
        }
      ],
      "name": "ThankYouList",
      "outputs": [
        {
          "name": "",
          "type": "uint256"
        }
      ],
      "payable": false,
      "stateMutability": "view",
      "type": "function"
    },
    {
      "constant": true,
      "inputs": [],
      "name": "ThankYouListCount",
      "outputs": [
        {
          "name": "",
          "type": "uint256"
        }
      ],
      "payable": false,
      "stateMutability": "view",
      "type": "function"
    },
    {
      "inputs": [],
      "payable": false,
      "stateMutability": "nonpayable",
      "type": "constructor"
    },
    {
      "constant": false,
      "inputs": [
        {
          "name": "fromAddress",
          "type": "address"
        },
        {
          "name": "toAddress",
          "type": "address"
        },
        {
          "name": "name",
          "type": "string"
        },
        {
          "name": "amount",
          "type": "uint256"
        }
      ],
      "name": "sayThanks",
      "outputs": [],
      "payable": false,
      "stateMutability": "nonpayable",
      "type": "function"
    }
  ],
  "bytecode": "0x608060405234801561001057600080fd5b50336000806101000a81548173ffffffffffffffffffffffffffffffffffffffff021916908373ffffffffffffffffffffffffffffffffffffffff16021790555060006004819055506108a9806100686000396000f30060806040526004361061006d576000357c0100000000000000000000000000000000000000000000000000000000900463ffffffff16806348d22f70146100725780634b1d4e021461017257806389d70df914610225578063d01f42f41461027c578063df51aa08146102d3575b600080fd5b34801561007e57600080fd5b506100bd600480360381019080803573ffffffffffffffffffffffffffffffffffffffff169060200190929190803590602001909291905050506102fe565b604051808473ffffffffffffffffffffffffffffffffffffffff1673ffffffffffffffffffffffffffffffffffffffff16815260200180602001838152602001828103825284818151815260200191508051906020019080838360005b8381101561013557808201518184015260208101905061011a565b50505050905090810190601f1680156101625780820380516001836020036101000a031916815260200191505b5094505050505060405180910390f35b34801561017e57600080fd5b50610223600480360381019080803573ffffffffffffffffffffffffffffffffffffffff169060200190929190803573ffffffffffffffffffffffffffffffffffffffff169060200190929190803590602001908201803590602001908080601f0160208091040260200160405190810160405280939291908181526020018383808284378201915050505050509192919290803590602001909291905050506103fc565b005b34801561023157600080fd5b50610266600480360381019080803573ffffffffffffffffffffffffffffffffffffffff16906020019092919050505061076a565b6040518082815260200191505060405180910390f35b34801561028857600080fd5b506102bd600480360381019080803573ffffffffffffffffffffffffffffffffffffffff169060200190929190505050610782565b6040518082815260200191505060405180910390f35b3480156102df57600080fd5b506102e861079a565b6040518082815260200191505060405180910390f35b60016020528160005260406000208181548110151561031957fe5b9060005260206000209060030201600091509150508060000160009054906101000a900473ffffffffffffffffffffffffffffffffffffffff1690806001018054600181600116156101000203166002900480601f0160208091040260200160405190810160405280929190818152602001828054600181600116156101000203166002900480156103ec5780601f106103c1576101008083540402835291602001916103ec565b820191906000526020600020905b8154815290600101906020018083116103cf57829003601f168201915b5050505050908060020154905083565b6104046107a0565b60006060604051908101604052808673ffffffffffffffffffffffffffffffffffffffff1681526020018581526020018481525091506000600160008873ffffffffffffffffffffffffffffffffffffffff1673ffffffffffffffffffffffffffffffffffffffff16815260200190815260200160002080549050141515610511576001600260008873ffffffffffffffffffffffffffffffffffffffff1673ffffffffffffffffffffffffffffffffffffffff1681526020019081526020016000205401600260008873ffffffffffffffffffffffffffffffffffffffff1673ffffffffffffffffffffffffffffffffffffffff16815260200190815260200160002081905550610557565b6001600260008873ffffffffffffffffffffffffffffffffffffffff1673ffffffffffffffffffffffffffffffffffffffff168152602001908152602001600020819055505b600160008773ffffffffffffffffffffffffffffffffffffffff1673ffffffffffffffffffffffffffffffffffffffff168152602001908152602001600020829080600181540180825580915050906001820390600052602060002090600302016000909192909190915060008201518160000160006101000a81548173ffffffffffffffffffffffffffffffffffffffff021916908373ffffffffffffffffffffffffffffffffffffffff16021790555060208201518160010190805190602001906106259291906107d8565b50604082015181600201555050506000600360008773ffffffffffffffffffffffffffffffffffffffff1673ffffffffffffffffffffffffffffffffffffffff1681526020019081526020016000205414151561070a57600360008673ffffffffffffffffffffffffffffffffffffffff1673ffffffffffffffffffffffffffffffffffffffff16815260200190815260200160002054905060018101600360008773ffffffffffffffffffffffffffffffffffffffff1673ffffffffffffffffffffffffffffffffffffffff16815260200190815260200160002081905550610750565b6001600360008773ffffffffffffffffffffffffffffffffffffffff1673ffffffffffffffffffffffffffffffffffffffff168152602001908152602001600020819055505b600460008154809291906001019190505550505050505050565b60026020528060005260406000206000915090505481565b60036020528060005260406000206000915090505481565b60045481565b606060405190810160405280600073ffffffffffffffffffffffffffffffffffffffff16815260200160608152602001600081525090565b828054600181600116156101000203166002900490600052602060002090601f016020900481019282601f1061081957805160ff1916838001178555610847565b82800160010185558215610847579182015b8281111561084657825182559160200191906001019061082b565b5b5090506108549190610858565b5090565b61087a91905b8082111561087657600081600090555060010161085e565b5090565b905600a165627a7a72305820b8b0a9897a5d4ee1d9ef9e0e447840b8c9418d166af0a6ff80ae4e7c9538914b0029",
  "source": "pragma solidity ^0.4.22;\n//pragma solidity ^0.5.0;\n\ncontract Thankyou {\n  address owner; \n\n  struct Thank{\n    address toAddress;\n    string name;\n    uint amount; //Considering for Phase-II.\n  }\n\n  mapping (address=> Thank[]) public myThankYouList;\n  mapping (address=> uint) public myThankYouListCount;\n  mapping(address => uint) public ThankYouList;\n  uint public ThankYouListCount;\n\n  constructor() public {\n    owner = msg.sender;\n    ThankYouListCount = 0;\n  }\n\n  function sayThanks(address fromAddress, address toAddress, string memory name, uint amount) public {    \n    //Validation-1 (to & from address should not be same)\n    //Validation-2 (amount should not be zero)\n    //Validation-3 (from account should have a fair amount to transfer)      \n    Thank memory newThanks = Thank(toAddress, name, amount);\n      \n    //Maintain the count for a person's thank giving. \n    if(myThankYouList[fromAddress].length != 0){\n      myThankYouListCount[fromAddress] = myThankYouListCount[fromAddress] + 1;\n    }else {\n      myThankYouListCount[fromAddress] = 1;\n    }\n      \n    //Push element into the sequence. \n    myThankYouList[fromAddress].push(newThanks);  \n      \n    //Add a count in the Thanks you list. \n    if(ThankYouList[toAddress] != 0)\n    {\n      uint count = ThankYouList[toAddress];\n      ThankYouList[toAddress] = count + 1;\n    }\n    else {\n      ThankYouList[toAddress] = 1;\n    }\n    \n    ThankYouListCount++;\n  }\n  \n   \n}\n",
  "sourcePath": "E:\\Private\\Projects\\Blockchain work\\ThankYouDapp\\ThankYou\\contracts\\Thankyou.sol",
  "compiler": {
    "name": "solc",
    "version": "0.4.25+commit.59dbf8f1.Emscripten.clang"
  },
  "schemaVersion": "2.0.2",
  "updatedAt": "2019-02-02T14:46:42.711Z"
}