{
  "contractName": "Thankyou",
  "abi": [
    {
      "constant": true,
      "inputs": [
        {
          "name": "",
          "type": "address"
        }
      ],
      "name": "personsThanks",
      "outputs": [
        {
          "name": "Thankyou",
          "type": "uint256"
        }
      ],
      "payable": false,
      "stateMutability": "view",
      "type": "function"
    },
    {
      "inputs": [],
      "payable": false,
      "stateMutability": "nonpayable",
      "type": "constructor"
    },
    {
      "constant": false,
      "inputs": [
        {
          "name": "toAddress",
          "type": "address"
        }
      ],
      "name": "sayThanks",
      "outputs": [],
      "payable": false,
      "stateMutability": "nonpayable",
      "type": "function"
    }
  ],
  "bytecode": "0x608060405234801561001057600080fd5b50336000806101000a81548173ffffffffffffffffffffffffffffffffffffffff021916908373ffffffffffffffffffffffffffffffffffffffff160217905550610221806100606000396000f30060806040526004361061004c576000357c0100000000000000000000000000000000000000000000000000000000900463ffffffff1680632d4b6b6714610051578063e1261dca14610094575b600080fd5b34801561005d57600080fd5b50610092600480360381019080803573ffffffffffffffffffffffffffffffffffffffff1690602001909291905050506100eb565b005b3480156100a057600080fd5b506100d5600480360381019080803573ffffffffffffffffffffffffffffffffffffffff1690602001909291905050506101d7565b6040518082815260200191505060405180910390f35b6000600160008373ffffffffffffffffffffffffffffffffffffffff1673ffffffffffffffffffffffffffffffffffffffff168152602001908152602001600020600001549050600081111561018a5760018101600160008473ffffffffffffffffffffffffffffffffffffffff1673ffffffffffffffffffffffffffffffffffffffff168152602001908152602001600020600001819055506101d3565b6000600160008473ffffffffffffffffffffffffffffffffffffffff1673ffffffffffffffffffffffffffffffffffffffff168152602001908152602001600020600001819055505b5050565b600160205280600052604060002060009150905080600001549050815600a165627a7a72305820a1bed447883a129725833844cc62b7e56a7a637ee4a25b14f160cba9f98a32290029",
  "source": "pragma solidity ^0.4.22;\n\ncontract Thankyou {\n  address owner; \n\n  struct Person{\n    uint Thankyou;\n  }\n\n\n  mapping(address => Person) public personsThanks;\n  \n  constructor() public {\n    owner = msg.sender;\n  }\n\n  function sayThanks(address toAddress) public {\n\n    uint count = personsThanks[toAddress].Thankyou;\n\n    if(count > 0){\n      personsThanks[toAddress].Thankyou = count + 1;\n    }\n    else{\n      personsThanks[toAddress].Thankyou = 0;\n    }\n  }\n}\n",
  "sourcePath": "E:\\Private\\Projects\\Blockchain work\\electionDapp\\contracts\\Thankyou.sol",
  "compiler": {
    "name": "solc",
    "version": "0.4.25+commit.59dbf8f1.Emscripten.clang"
  },
  "schemaVersion": "2.0.2",
  "updatedAt": "2019-01-19T13:45:21.504Z"
}