{
  "contractName": "Thankyou",
  "abi": [
    {
      "constant": true,
      "inputs": [
        {
          "name": "",
          "type": "address"
        }
      ],
      "name": "personsThanks",
      "outputs": [
        {
          "name": "Thankyou",
          "type": "uint256"
        }
      ],
      "payable": false,
      "stateMutability": "view",
      "type": "function"
    },
    {
      "inputs": [],
      "payable": false,
      "stateMutability": "nonpayable",
      "type": "constructor"
    },
    {
      "constant": false,
      "inputs": [
        {
          "name": "toAddress",
          "type": "address"
        }
      ],
      "name": "sayThanks",
      "outputs": [],
      "payable": false,
      "stateMutability": "nonpayable",
      "type": "function"
    }
  ],
  "bytecode": "0x608060405234801561001057600080fd5b50336000806101000a81548173ffffffffffffffffffffffffffffffffffffffff021916908373ffffffffffffffffffffffffffffffffffffffff160217905550610278806100606000396000f30060806040526004361061004c576000357c0100000000000000000000000000000000000000000000000000000000900463ffffffff1680632d4b6b6714610051578063e1261dca14610094575b600080fd5b34801561005d57600080fd5b50610092600480360381019080803573ffffffffffffffffffffffffffffffffffffffff1690602001909291905050506100eb565b005b3480156100a057600080fd5b506100d5600480360381019080803573ffffffffffffffffffffffffffffffffffffffff16906020019092919050505061022e565b6040518082815260200191505060405180910390f35b600080600160008473ffffffffffffffffffffffffffffffffffffffff1673ffffffffffffffffffffffffffffffffffffffff168152602001908152602001600020600001541415156101cc57600160008373ffffffffffffffffffffffffffffffffffffffff1673ffffffffffffffffffffffffffffffffffffffff16815260200190815260200160002060000154905060018101600160008473ffffffffffffffffffffffffffffffffffffffff1673ffffffffffffffffffffffffffffffffffffffff1681526020019081526020016000206000018190555061022a565b6020604051908101604052806001815250600160008473ffffffffffffffffffffffffffffffffffffffff1673ffffffffffffffffffffffffffffffffffffffff168152602001908152602001600020600082015181600001559050505b5050565b600160205280600052604060002060009150905080600001549050815600a165627a7a72305820fb2d298c308b1bc71ad81f887562c441c095936a2e04d1494306482b31818a8a0029",
  "source": "pragma solidity ^0.4.22;\n\ncontract Thankyou {\n  address owner; \n\n  struct Person{\n    uint Thankyou;\n  }\n\n\n  mapping(address => Person) public personsThanks;\n  \n  constructor() public {\n    owner = msg.sender;\n  }\n\n  function sayThanks(address toAddress) public {\n\n    if(personsThanks[toAddress].Thankyou != 0)\n    {\n      uint count = personsThanks[toAddress].Thankyou;\n      personsThanks[toAddress].Thankyou = count + 1;\n    }\n    else {\n      personsThanks[toAddress] = Person(1);\n    }\n  }\n}\n",
  "sourcePath": "E:\\Private\\Projects\\Blockchain work\\ThankYouDapp\\ThankYou\\contracts\\Thankyou.sol",
  "compiler": {
    "name": "solc",
    "version": "0.4.25+commit.59dbf8f1.Emscripten.clang"
  },
  "schemaVersion": "2.0.2",
  "updatedAt": "2019-01-30T21:27:59.607Z"
}