{
  "contractName": "Thankyou",
  "abi": [
    {
      "constant": true,
      "inputs": [
        {
          "name": "",
          "type": "address"
        },
        {
          "name": "",
          "type": "uint256"
        }
      ],
      "name": "myThankYouList",
      "outputs": [
        {
          "name": "toAddress",
          "type": "address"
        },
        {
          "name": "name",
          "type": "string"
        },
        {
          "name": "amount",
          "type": "uint256"
        }
      ],
      "payable": false,
      "stateMutability": "view",
      "type": "function"
    },
    {
      "constant": true,
      "inputs": [
        {
          "name": "",
          "type": "address"
        }
      ],
      "name": "ThankYouList",
      "outputs": [
        {
          "name": "",
          "type": "uint256"
        }
      ],
      "payable": false,
      "stateMutability": "view",
      "type": "function"
    },
    {
      "inputs": [],
      "payable": false,
      "stateMutability": "nonpayable",
      "type": "constructor"
    },
    {
      "constant": false,
      "inputs": [
        {
          "name": "fromAddress",
          "type": "address"
        },
        {
          "name": "toAddress",
          "type": "address"
        },
        {
          "name": "name",
          "type": "string"
        },
        {
          "name": "amount",
          "type": "uint256"
        }
      ],
      "name": "sayThanks",
      "outputs": [],
      "payable": false,
      "stateMutability": "nonpayable",
      "type": "function"
    }
  ],
  "bytecode": "0x608060405234801561001057600080fd5b50336000806101000a81548173ffffffffffffffffffffffffffffffffffffffff021916908373ffffffffffffffffffffffffffffffffffffffff1602179055506106c4806100606000396000f300608060405260043610610057576000357c0100000000000000000000000000000000000000000000000000000000900463ffffffff16806348d22f701461005c5780634b1d4e021461015c578063d01f42f41461020f575b600080fd5b34801561006857600080fd5b506100a7600480360381019080803573ffffffffffffffffffffffffffffffffffffffff16906020019092919080359060200190929190505050610266565b604051808473ffffffffffffffffffffffffffffffffffffffff1673ffffffffffffffffffffffffffffffffffffffff16815260200180602001838152602001828103825284818151815260200191508051906020019080838360005b8381101561011f578082015181840152602081019050610104565b50505050905090810190601f16801561014c5780820380516001836020036101000a031916815260200191505b5094505050505060405180910390f35b34801561016857600080fd5b5061020d600480360381019080803573ffffffffffffffffffffffffffffffffffffffff169060200190929190803573ffffffffffffffffffffffffffffffffffffffff169060200190929190803590602001908201803590602001908080601f016020809104026020016040519081016040528093929190818152602001838380828437820191505050505050919291929080359060200190929190505050610364565b005b34801561021b57600080fd5b50610250600480360381019080803573ffffffffffffffffffffffffffffffffffffffff1690602001909291905050506105a3565b6040518082815260200191505060405180910390f35b60016020528160005260406000208181548110151561028157fe5b9060005260206000209060030201600091509150508060000160009054906101000a900473ffffffffffffffffffffffffffffffffffffffff1690806001018054600181600116156101000203166002900480601f0160208091040260200160405190810160405280929190818152602001828054600181600116156101000203166002900480156103545780601f1061032957610100808354040283529160200191610354565b820191906000526020600020905b81548152906001019060200180831161033757829003601f168201915b5050505050908060020154905083565b61036c6105bb565b60006060604051908101604052808673ffffffffffffffffffffffffffffffffffffffff168152602001858152602001848152509150600160008773ffffffffffffffffffffffffffffffffffffffff1673ffffffffffffffffffffffffffffffffffffffff168152602001908152602001600020829080600181540180825580915050906001820390600052602060002090600302016000909192909190915060008201518160000160006101000a81548173ffffffffffffffffffffffffffffffffffffffff021916908373ffffffffffffffffffffffffffffffffffffffff16021790555060208201518160010190805190602001906104709291906105f3565b50604082015181600201555050506000600260008773ffffffffffffffffffffffffffffffffffffffff1673ffffffffffffffffffffffffffffffffffffffff1681526020019081526020016000205414151561055557600260008673ffffffffffffffffffffffffffffffffffffffff1673ffffffffffffffffffffffffffffffffffffffff16815260200190815260200160002054905060018101600260008773ffffffffffffffffffffffffffffffffffffffff1673ffffffffffffffffffffffffffffffffffffffff1681526020019081526020016000208190555061059b565b6001600260008773ffffffffffffffffffffffffffffffffffffffff1673ffffffffffffffffffffffffffffffffffffffff168152602001908152602001600020819055505b505050505050565b60026020528060005260406000206000915090505481565b606060405190810160405280600073ffffffffffffffffffffffffffffffffffffffff16815260200160608152602001600081525090565b828054600181600116156101000203166002900490600052602060002090601f016020900481019282601f1061063457805160ff1916838001178555610662565b82800160010185558215610662579182015b82811115610661578251825591602001919060010190610646565b5b50905061066f9190610673565b5090565b61069591905b80821115610691576000816000905550600101610679565b5090565b905600a165627a7a723058203046f13853d4b32288d796b146bef3cfb74b4d09f7d958fdb05a648dfc407be80029",
  "source": "pragma solidity ^0.4.22;\n//pragma solidity ^0.5.0;\n\ncontract Thankyou {\n  address owner; \n\n  struct Thank{\n    address toAddress;\n    string name;\n    uint amount; //Considering for Phase-II.\n  }\n\n  mapping (address=> Thank[]) public myThankYouList;\n  mapping(address => uint) public ThankYouList;\n  \n  constructor() public {\n    owner = msg.sender;\n  }\n\n  function sayThanks(address fromAddress, address toAddress, string memory name, uint amount) public {    \n      //Validation-1 (to & from address should not be same)\n      //Validation-2 (amount should not be zero)\n      //Validation-3 (from account should have a fair amount to transfer)      \n      Thank memory newThanks = Thank(toAddress, name, amount);\n      myThankYouList[fromAddress].push(newThanks);  \n      \n    if(ThankYouList[toAddress] != 0)\n    {\n      uint count = ThankYouList[toAddress];\n      ThankYouList[toAddress] = count + 1;\n    }\n    else {\n      ThankYouList[toAddress] = 1;\n    }\n  }\n  \n   \n}\n",
  "sourcePath": "E:\\Private\\Projects\\Blockchain work\\ThankYouDapp\\ThankYou\\contracts\\Thankyou.sol",
  "compiler": {
    "name": "solc",
    "version": "0.4.25+commit.59dbf8f1.Emscripten.clang"
  },
  "schemaVersion": "2.0.2",
  "updatedAt": "2019-02-02T14:06:47.534Z"
}